{
  "_format": "hh3-artifact-1",
  "contractName": "PositionOrder",
  "sourceName": "contracts/PositionOrder.sol",
  "abi": [
    {
      "inputs": [
        {
          "internalType": "address",
          "name": "_immutableOwner",
          "type": "address"
        }
      ],
      "stateMutability": "nonpayable",
      "type": "constructor"
    },
    {
      "inputs": [],
      "name": "ERC721ProxyBadSelector",
      "type": "error"
    },
    {
      "inputs": [],
      "name": "IOAccessDenied",
      "type": "error"
    },
    {
      "inputs": [],
      "name": "IMMUTABLE_OWNER",
      "outputs": [
        {
          "internalType": "address",
          "name": "",
          "type": "address"
        }
      ],
      "stateMutability": "view",
      "type": "function"
    },
    {
      "inputs": [
        {
          "internalType": "address",
          "name": "from",
          "type": "address"
        },
        {
          "internalType": "address",
          "name": "to",
          "type": "address"
        },
        {
          "internalType": "uint256",
          "name": "",
          "type": "uint256"
        },
        {
          "internalType": "uint256",
          "name": "tokenId",
          "type": "uint256"
        },
        {
          "internalType": "contract IERC721",
          "name": "token",
          "type": "address"
        }
      ],
      "name": "func_60iHVgK",
      "outputs": [],
      "stateMutability": "nonpayable",
      "type": "function"
    },
    {
      "inputs": [
        {
          "internalType": "address",
          "name": "oracle",
          "type": "address"
        },
        {
          "internalType": "uint8",
          "name": "tokenDecimals",
          "type": "uint8"
        }
      ],
      "name": "getPrice",
      "outputs": [
        {
          "internalType": "uint256",
          "name": "",
          "type": "uint256"
        }
      ],
      "stateMutability": "view",
      "type": "function"
    },
    {
      "inputs": [
        {
          "components": [
            {
              "internalType": "uint256",
              "name": "salt",
              "type": "uint256"
            },
            {
              "internalType": "Address",
              "name": "maker",
              "type": "uint256"
            },
            {
              "internalType": "Address",
              "name": "receiver",
              "type": "uint256"
            },
            {
              "internalType": "Address",
              "name": "makerAsset",
              "type": "uint256"
            },
            {
              "internalType": "Address",
              "name": "takerAsset",
              "type": "uint256"
            },
            {
              "internalType": "uint256",
              "name": "makingAmount",
              "type": "uint256"
            },
            {
              "internalType": "uint256",
              "name": "takingAmount",
              "type": "uint256"
            },
            {
              "internalType": "MakerTraits",
              "name": "makerTraits",
              "type": "uint256"
            }
          ],
          "internalType": "struct IPreInteraction.Order",
          "name": "order",
          "type": "tuple"
        },
        {
          "internalType": "bytes",
          "name": "extension",
          "type": "bytes"
        },
        {
          "internalType": "bytes32",
          "name": "orderHash",
          "type": "bytes32"
        },
        {
          "internalType": "address",
          "name": "taker",
          "type": "address"
        },
        {
          "internalType": "uint256",
          "name": "makingAmount",
          "type": "uint256"
        },
        {
          "internalType": "uint256",
          "name": "takingAmount",
          "type": "uint256"
        },
        {
          "internalType": "uint256",
          "name": "remainingMakingAmount",
          "type": "uint256"
        },
        {
          "internalType": "bytes",
          "name": "extraData",
          "type": "bytes"
        }
      ],
      "name": "preInteraction",
      "outputs": [],
      "stateMutability": "nonpayable",
      "type": "function"
    }
  ],
  "bytecode": "0x60a0604052348015600e575f5ffd5b50604051610913380380610913833981016040819052602b91603b565b6001600160a01b03166080526066565b5f60208284031215604a575f5ffd5b81516001600160a01b0381168114605f575f5ffd5b9392505050565b60805161088961008a5f395f818160a10152818160e6015261027a01526108895ff3fe608060405234801561000f575f5ffd5b506004361061004a575f3560e01c80630986bdd51461004e57806323b872dd146100635780633ef8faad14610076578063f3d1372f1461009c575b5f5ffd5b61006161005c3660046104f8565b6100db565b005b6100616100713660046105bf565b61026f565b610089610084366004610628565b610324565b6040519081526020015b60405180910390f35b6100c37f000000000000000000000000000000000000000000000000000000000000000081565b6040516001600160a01b039091168152602001610093565b336001600160a01b037f000000000000000000000000000000000000000000000000000000000000000016146101245760405163497131ed60e01b815260040160405180910390fd5b5f806101328385018561065f565b6040516331a9108f60e11b815260048101829052919350915082905f906001600160a01b03831690636352211e90602401602060405180830381865afa15801561017e573d5f5f3e3d5ffd5b505050506040513d601f19601f820116820180604052508101906101a29190610689565b604080516080810182528581526001600160a01b03838116602083019081526fffffffffffffffffffffffffffffffff83850181815260608501828152955163fc6f786560e01b8152855160048201529251841660248401525181166044830152935190931660648401529293509184169063fc6f78659060840160408051808303815f875af1158015610238573d5f5f3e3d5ffd5b505050506040513d601f19601f8201168201806040525081019061025c91906106ab565b5050505050505050505050505050505050565b336001600160a01b037f000000000000000000000000000000000000000000000000000000000000000016146102b85760405163497131ed60e01b815260040160405180910390fd5b6040516323b872dd60e01b81526001600160a01b0386811660048301528581166024830152604482018490528216906323b872dd906064015f604051808303815f87803b158015610307575f5ffd5b505af1158015610319573d5f5f3e3d5ffd5b505050505050505050565b5f5f836001600160a01b03166350d25bcd6040518163ffffffff1660e01b8152600401602060405180830381865afa158015610362573d5f5f3e3d5ffd5b505050506040513d601f19601f8201168201806040525081019061038691906106cd565b90505f81136103cc5760405162461bcd60e51b815260206004820152600e60248201526d4e6567617469766520707269636560901b604482015260640160405180910390fd5b5f846001600160a01b031663313ce5676040518163ffffffff1660e01b8152600401602060405180830381865afa158015610409573d5f5f3e3d5ffd5b505050506040513d601f19601f8201168201806040525081019061042d91906106e4565b90505f8160ff168560ff1611610461576104478583610713565b61045290600a61080f565b61045c908461081d565b610480565b61046b8286610713565b61047690600a61080f565b610480908461083c565b93505050505b92915050565b5f5f83601f84011261049c575f5ffd5b50813567ffffffffffffffff8111156104b3575f5ffd5b6020830191508360208285010111156104ca575f5ffd5b9250929050565b6001600160a01b03811681146104e5575f5ffd5b50565b80356104f3816104d1565b919050565b5f5f5f5f5f5f5f5f5f5f8a8c036101e0811215610513575f5ffd5b610100811215610521575f5ffd5b508a99506101008b013567ffffffffffffffff81111561053f575f5ffd5b61054b8d828e0161048c565b909a509850506101208b013596506105666101408c016104e8565b95506101608b013594506101808b013593506101a08b013592506101c08b013567ffffffffffffffff81111561059a575f5ffd5b6105a68d828e0161048c565b915080935050809150509295989b9194979a5092959850565b5f5f5f5f5f60a086880312156105d3575f5ffd5b85356105de816104d1565b945060208601356105ee816104d1565b93506040860135925060608601359150608086013561060c816104d1565b809150509295509295909350565b60ff811681146104e5575f5ffd5b5f5f60408385031215610639575f5ffd5b8235610644816104d1565b915060208301356106548161061a565b809150509250929050565b5f5f60408385031215610670575f5ffd5b823561067b816104d1565b946020939093013593505050565b5f60208284031215610699575f5ffd5b81516106a4816104d1565b9392505050565b5f5f604083850312156106bc575f5ffd5b505080516020909101519092909150565b5f602082840312156106dd575f5ffd5b5051919050565b5f602082840312156106f4575f5ffd5b81516106a48161061a565b634e487b7160e01b5f52601160045260245ffd5b60ff8281168282160390811115610486576104866106ff565b6001815b60018411156107675780850481111561074b5761074b6106ff565b600184161561075957908102905b60019390931c928002610730565b935093915050565b5f8261077d57506001610486565b8161078957505f610486565b816001811461079f57600281146107a9576107c5565b6001915050610486565b60ff8411156107ba576107ba6106ff565b50506001821b610486565b5060208310610133831016604e8410600b84101617156107e8575081810a610486565b6107f45f19848461072c565b805f1904821115610807576108076106ff565b029392505050565b5f6106a460ff84168361076f565b5f8261083757634e487b7160e01b5f52601260045260245ffd5b500490565b8082028115828204841417610486576104866106ff56fea264697066735822122098cb8e9a36b0413c88d689be5ad95ba4143b8b9de01aca88c1556bf6cd98e9a564736f6c634300081c0033",
  "linkReferences": {},
  "deployedLinkReferences": {},
  "immutableReferences": {
    "62": [
      {
        "length": 32,
        "start": 161
      },
      {
        "length": 32,
        "start": 230
      },
      {
        "length": 32,
        "start": 634
      }
    ]
  },
  "inputSourceName": "project/contracts/PositionOrder.sol",
  "buildInfoId": "solc-0_8_28-6ab4216d4d5a05eecd52c88f764791c55f76d9a0"
}